{
  "_format": "hh-sol-artifact-1",
  "contractName": "Game4",
  "sourceName": "contracts/Game4.sol",
  "abi": [
    {
      "anonymous": false,
      "inputs": [
        {
          "indexed": false,
          "internalType": "address",
          "name": "winner",
          "type": "address"
        }
      ],
      "name": "Winner",
      "type": "event"
    },
    {
      "inputs": [
        {
          "internalType": "uint8",
          "name": "x",
          "type": "uint8"
        }
      ],
      "name": "win",
      "outputs": [],
      "stateMutability": "nonpayable",
      "type": "function"
    }
  ],
  "bytecode": "0x608060405260d26000806101000a81548160ff021916908360ff16021790555034801561002b57600080fd5b506102538061003b6000396000f3fe608060405234801561001057600080fd5b506004361061002b5760003560e01c8063345a442314610030575b600080fd5b61004a600480360381019061004591906100f7565b61004c565b005b60008060009054906101000a900460ff1682019050600a8160ff16146100a7576040517f08c379a000000000000000000000000000000000000000000000000000000000815260040161009e9061016d565b60405180910390fd5b507f745c90b656b4aafe296c8ca35aeacfe56cb96c90e1d320e5da643fff1051b6c0336040516100d79190610152565b60405180910390a150565b6000813590506100f181610206565b92915050565b60006020828403121561010957600080fd5b6000610117848285016100e2565b91505092915050565b6101298161019e565b82525050565b600061013c601d8361018d565b9150610147826101dd565b602082019050919050565b60006020820190506101676000830184610120565b92915050565b600060208201905081810360008301526101868161012f565b9050919050565b600082825260208201905092915050565b60006101a9826101b0565b9050919050565b600073ffffffffffffffffffffffffffffffffffffffff82169050919050565b600060ff82169050919050565b7f496e636f727265637420617267756d656e742070617373656420696e21000000600082015250565b61020f816101d0565b811461021a57600080fd5b5056fea264697066735822122018c0e034a3bab63cb8dd45570e1e7823e9e1e1f2267e550fd8ce8277f676a0fa64736f6c63430008040033",
  "linkReferences": {},
  "deployedLinkReferences": {}
}