{
  "_format": "hh-sol-artifact-1",
  "contractName": "Game1",
  "sourceName": "contracts/Game1.sol",
  "abi": [
    {
      "anonymous": false,
      "inputs": [
        {
          "indexed": false,
          "internalType": "address",
          "name": "winner",
          "type": "address"
        },
        {
          "indexed": false,
          "internalType": "uint256",
          "name": "amount",
          "type": "uint256"
        },
        {
          "indexed": false,
          "internalType": "string",
          "name": "cool",
          "type": "string"
        }
      ],
      "name": "Winner",
      "type": "event"
    },
    {
      "inputs": [],
      "name": "win",
      "outputs": [],
      "stateMutability": "nonpayable",
      "type": "function"
    }
  ],
  "bytecode": "0x608060405234801561001057600080fd5b506102fd806100206000396000f3fe608060405234801561001057600080fd5b506004361061002b5760003560e01c8063473ca96c14610030575b600080fd5b61003861003a565b005b610044601661008a565b61004e603761008a565b7f273da5acd2d98699f0eae27416a51f3a509fd8353df0f2b4c8cdfaa7f245a9303360166040516100809291906101e8565b60405180910390a1565b6101208160405160240161009e9190610224565b6040516020818303038152906040527ff82c50f1000000000000000000000000000000000000000000000000000000007bffffffffffffffffffffffffffffffffffffffffffffffffffffffff19166020820180517bffffffffffffffffffffffffffffffffffffffffffffffffffffffff8381831617835250505050610123565b50565b61013a8161013261013d61015e565b63ffffffff16565b50565b60006a636f6e736f6c652e6c6f679050600080835160208501845afa505050565b610169819050919050565b7f4e487b7100000000000000000000000000000000000000000000000000000000600052605160045260246000fd5b6101a181610250565b82525050565b6101b08161028c565b82525050565b60006101c360048361023f565b91506101ce8261029e565b602082019050919050565b6101e281610282565b82525050565b60006060820190506101fd6000830185610198565b61020a60208301846101a7565b818103604083015261021b816101b6565b90509392505050565b600060208201905061023960008301846101d9565b92915050565b600082825260208201905092915050565b600061025b82610262565b9050919050565b600073ffffffffffffffffffffffffffffffffffffffff82169050919050565b6000819050919050565b600061029782610282565b9050919050565b7f726177720000000000000000000000000000000000000000000000000000000060008201525056fea264697066735822122054653e69bdba0469a851b119d89b1c68b3641b3987350520d061a0311dfd998464736f6c63430008040033",
  "linkReferences": {},
  "deployedLinkReferences": {}
}