{
  "_format": "hh-sol-artifact-1",
  "contractName": "Gambling",
  "sourceName": "contracts/Gambling.sol",
  "abi": [
    {
      "inputs": [],
      "stateMutability": "nonpayable",
      "type": "constructor"
    },
    {
      "anonymous": false,
      "inputs": [
        {
          "indexed": false,
          "internalType": "uint256",
          "name": "number",
          "type": "uint256"
        },
        {
          "indexed": false,
          "internalType": "uint256",
          "name": "gamesPlayed",
          "type": "uint256"
        },
        {
          "indexed": false,
          "internalType": "uint256",
          "name": "balance",
          "type": "uint256"
        }
      ],
      "name": "YouLoose",
      "type": "event"
    },
    {
      "anonymous": false,
      "inputs": [
        {
          "indexed": false,
          "internalType": "uint256",
          "name": "number",
          "type": "uint256"
        },
        {
          "indexed": false,
          "internalType": "uint256",
          "name": "gamesPlayed",
          "type": "uint256"
        },
        {
          "indexed": false,
          "internalType": "uint256",
          "name": "balance",
          "type": "uint256"
        }
      ],
      "name": "YouWin",
      "type": "event"
    },
    {
      "inputs": [],
      "name": "balance",
      "outputs": [
        {
          "internalType": "uint256",
          "name": "",
          "type": "uint256"
        }
      ],
      "stateMutability": "view",
      "type": "function"
    },
    {
      "inputs": [
        {
          "internalType": "uint256",
          "name": "randomNumber",
          "type": "uint256"
        },
        {
          "internalType": "uint256",
          "name": "guess",
          "type": "uint256"
        },
        {
          "internalType": "address",
          "name": "player1",
          "type": "address"
        }
      ],
      "name": "playGame",
      "outputs": [],
      "stateMutability": "payable",
      "type": "function"
    },
    {
      "inputs": [],
      "name": "randomNumberGenerator",
      "outputs": [
        {
          "internalType": "address",
          "name": "",
          "type": "address"
        }
      ],
      "stateMutability": "view",
      "type": "function"
    },
    {
      "inputs": [],
      "name": "transfer",
      "outputs": [
        {
          "internalType": "uint256",
          "name": "",
          "type": "uint256"
        }
      ],
      "stateMutability": "view",
      "type": "function"
    },
    {
      "stateMutability": "payable",
      "type": "receive"
    }
  ],
  "bytecode": "0x60806040524760025534801561001457600080fd5b50336000806101000a81548173ffffffffffffffffffffffffffffffffffffffff021916908373ffffffffffffffffffffffffffffffffffffffff160217905550610626806100646000396000f3fe6080604052600436106100435760003560e01c80633bedaca2146100685780637a5fd189146100935780638a4068dd146100af578063b69ef8a8146100da57610063565b3661006357346001600082825461005a91906104b5565b92505081905550005b600080fd5b34801561007457600080fd5b5061007d610105565b60405161008a919061043d565b60405180910390f35b6100ad60048036038101906100a89190610398565b610129565b005b3480156100bb57600080fd5b506100c4610362565b6040516100d19190610458565b60405180910390f35b3480156100e657600080fd5b506100ef610368565b6040516100fc9190610458565b60405180910390f35b60008054906101000a900473ffffffffffffffffffffffffffffffffffffffff1681565b60008054906101000a900473ffffffffffffffffffffffffffffffffffffffff1673ffffffffffffffffffffffffffffffffffffffff163373ffffffffffffffffffffffffffffffffffffffff161461018157600080fd5b600360008273ffffffffffffffffffffffffffffffffffffffff1673ffffffffffffffffffffffffffffffffffffffff16815260200190815260200160002060008154809291906101d190610547565b9190505550828214156102e05760008173ffffffffffffffffffffffffffffffffffffffff1660015460405161020690610428565b60006040518083038185875af1925050503d8060008114610243576040519150601f19603f3d011682016040523d82523d6000602084013e610248565b606091505b505090508061025657600080fd5b60006001819055507f78aba60bc84636e8ff8a64b532a2d4fd888140be12ecc640738315271e4a96d784600360008573ffffffffffffffffffffffffffffffffffffffff1673ffffffffffffffffffffffffffffffffffffffff168152602001908152602001600020546001546040516102d293929190610473565b60405180910390a15061035d565b7f424da76f7d411aac040794b7dfa6ef275470c595846035c127a2eaf6763245b283600360008473ffffffffffffffffffffffffffffffffffffffff1673ffffffffffffffffffffffffffffffffffffffff1681526020019081526020016000205460015460405161035493929190610473565b60405180910390a15b505050565b60015481565b60025481565b60008135905061037d816105c2565b92915050565b600081359050610392816105d9565b92915050565b6000806000606084860312156103ad57600080fd5b60006103bb86828701610383565b93505060206103cc86828701610383565b92505060406103dd8682870161036e565b9150509250925092565b6103f08161050b565b82525050565b60006104036000836104aa565b915061040e826105bf565b600082019050919050565b6104228161053d565b82525050565b6000610433826103f6565b9150819050919050565b600060208201905061045260008301846103e7565b92915050565b600060208201905061046d6000830184610419565b92915050565b60006060820190506104886000830186610419565b6104956020830185610419565b6104a26040830184610419565b949350505050565b600081905092915050565b60006104c08261053d565b91506104cb8361053d565b9250827fffffffffffffffffffffffffffffffffffffffffffffffffffffffffffffffff03821115610500576104ff610590565b5b828201905092915050565b60006105168261051d565b9050919050565b600073ffffffffffffffffffffffffffffffffffffffff82169050919050565b6000819050919050565b60006105528261053d565b91507fffffffffffffffffffffffffffffffffffffffffffffffffffffffffffffffff82141561058557610584610590565b5b600182019050919050565b7f4e487b7100000000000000000000000000000000000000000000000000000000600052601160045260246000fd5b50565b6105cb8161050b565b81146105d657600080fd5b50565b6105e28161053d565b81146105ed57600080fd5b5056fea2646970667358221220ab3e30ad72f0e7d3ade756f1bc5d5c637c005e4dcd880b9fbe74af87c6dfa52764736f6c63430008040033",
  "linkReferences": {},
  "deployedLinkReferences": {}
}