{
  "_format": "hh-sol-artifact-1",
  "contractName": "Game2",
  "sourceName": "contracts/Game2.sol",
  "abi": [
    {
      "anonymous": false,
      "inputs": [
        {
          "indexed": false,
          "internalType": "address",
          "name": "winner",
          "type": "address"
        }
      ],
      "name": "Winner",
      "type": "event"
    },
    {
      "inputs": [
        {
          "internalType": "uint256",
          "name": "_x",
          "type": "uint256"
        }
      ],
      "name": "setX",
      "outputs": [],
      "stateMutability": "nonpayable",
      "type": "function"
    },
    {
      "inputs": [
        {
          "internalType": "uint256",
          "name": "_y",
          "type": "uint256"
        }
      ],
      "name": "setY",
      "outputs": [],
      "stateMutability": "nonpayable",
      "type": "function"
    },
    {
      "inputs": [],
      "name": "win",
      "outputs": [],
      "stateMutability": "nonpayable",
      "type": "function"
    },
    {
      "inputs": [],
      "name": "x",
      "outputs": [
        {
          "internalType": "uint256",
          "name": "",
          "type": "uint256"
        }
      ],
      "stateMutability": "view",
      "type": "function"
    },
    {
      "inputs": [],
      "name": "y",
      "outputs": [
        {
          "internalType": "uint256",
          "name": "",
          "type": "uint256"
        }
      ],
      "stateMutability": "view",
      "type": "function"
    }
  ],
  "bytecode": "0x608060405234801561001057600080fd5b5061030b806100206000396000f3fe608060405234801561001057600080fd5b50600436106100575760003560e01c80630c55699c1461005c5780634018d9aa1461007a578063473ca96c1461009657806368d466b8146100a0578063a56dfe4a146100bc575b600080fd5b6100646100da565b60405161007191906101e2565b60405180910390f35b610094600480360381019061008f9190610180565b6100e0565b005b61009e6100ea565b005b6100ba60048036038101906100b59190610180565b61015b565b005b6100c4610165565b6040516100d191906101e2565b60405180910390f35b60005481565b8060008190555050565b600080541180156100fd57506000600154115b61010657600080fd5b603260015460005461011891906101fd565b1461012257600080fd5b7f745c90b656b4aafe296c8ca35aeacfe56cb96c90e1d320e5da643fff1051b6c03360405161015191906101c7565b60405180910390a1565b8060018190555050565b60015481565b60008135905061017a816102be565b92915050565b60006020828403121561019257600080fd5b60006101a08482850161016b565b91505092915050565b6101b281610253565b82525050565b6101c181610285565b82525050565b60006020820190506101dc60008301846101a9565b92915050565b60006020820190506101f760008301846101b8565b92915050565b600061020882610285565b915061021383610285565b9250827fffffffffffffffffffffffffffffffffffffffffffffffffffffffffffffffff038211156102485761024761028f565b5b828201905092915050565b600061025e82610265565b9050919050565b600073ffffffffffffffffffffffffffffffffffffffff82169050919050565b6000819050919050565b7f4e487b7100000000000000000000000000000000000000000000000000000000600052601160045260246000fd5b6102c781610285565b81146102d257600080fd5b5056fea264697066735822122034df40a1f9d55586a2a2216ccd7a7793c998263a57985370c0675c2d17fc5d5864736f6c63430008040033",
  "linkReferences": {},
  "deployedLinkReferences": {}
}