{
  "_format": "hh-sol-artifact-1",
  "contractName": "Faucet",
  "sourceName": "contracts/Faucet.sol",
  "abi": [
    {
      "inputs": [
        {
          "internalType": "uint256",
          "name": "_amount",
          "type": "uint256"
        }
      ],
      "name": "withdraw",
      "outputs": [],
      "stateMutability": "nonpayable",
      "type": "function"
    },
    {
      "stateMutability": "payable",
      "type": "receive"
    }
  ],
  "bytecode": "0x608060405234801561001057600080fd5b5061014b806100206000396000f3fe6080604052600436106100225760003560e01c80632e1a7d4d1461002e57610029565b3661002957005b600080fd5b34801561003a57600080fd5b50610055600480360381019061005091906100cb565b610057565b005b67016345785d8a000081111561006c57600080fd5b3373ffffffffffffffffffffffffffffffffffffffff166108fc829081150290604051600060405180830381858888f193505050501580156100b2573d6000803e3d6000fd5b5050565b6000813590506100c5816100fe565b92915050565b6000602082840312156100dd57600080fd5b60006100eb848285016100b6565b91505092915050565b6000819050919050565b610107816100f4565b811461011257600080fd5b5056fea2646970667358221220e35aacc92be252e98a25c285912cead13cd298f1d1b01f9a652d3a270607eee464736f6c63430008040033",
  "linkReferences": {},
  "deployedLinkReferences": {}
}