{
  "_format": "hh-sol-artifact-1",
  "contractName": "Game3",
  "sourceName": "contracts/Game3.sol",
  "abi": [
    {
      "anonymous": false,
      "inputs": [
        {
          "indexed": false,
          "internalType": "address",
          "name": "winner",
          "type": "address"
        }
      ],
      "name": "Winner",
      "type": "event"
    },
    {
      "inputs": [
        {
          "internalType": "uint8",
          "name": "x",
          "type": "uint8"
        }
      ],
      "name": "win",
      "outputs": [],
      "stateMutability": "nonpayable",
      "type": "function"
    }
  ],
  "bytecode": "0x608060405260ff6000806101000a81548160ff021916908360ff16021790555034801561002b57600080fd5b5061039f8061003b6000396000f3fe608060405234801561001057600080fd5b506004361061002b5760003560e01c8063345a442314610030575b600080fd5b61004a6004803603810190610045919061020f565b61004c565b005b60008060009054906101000a900460ff168201905060098160ff16146100a7576040517f08c379a000000000000000000000000000000000000000000000000000000000815260040161009e90610294565b60405180910390fd5b506100b260216100ec565b7f745c90b656b4aafe296c8ca35aeacfe56cb96c90e1d320e5da643fff1051b6c0336040516100e19190610279565b60405180910390a150565b6101828160405160240161010091906102b4565b6040516020818303038152906040527ff82c50f1000000000000000000000000000000000000000000000000000000007bffffffffffffffffffffffffffffffffffffffffffffffffffffffff19166020820180517bffffffffffffffffffffffffffffffffffffffffffffffffffffffff8381831617835250505050610185565b50565b61019c8161019461019f6101c0565b63ffffffff16565b50565b60006a636f6e736f6c652e6c6f679050600080835160208501845afa505050565b6101cb819050919050565b7f4e487b7100000000000000000000000000000000000000000000000000000000600052605160045260246000fd5b60008135905061020981610352565b92915050565b60006020828403121561022157600080fd5b600061022f848285016101fa565b91505092915050565b610241816102e0565b82525050565b6000610254601d836102cf565b915061025f82610329565b602082019050919050565b61027381610312565b82525050565b600060208201905061028e6000830184610238565b92915050565b600060208201905081810360008301526102ad81610247565b9050919050565b60006020820190506102c9600083018461026a565b92915050565b600082825260208201905092915050565b60006102eb826102f2565b9050919050565b600073ffffffffffffffffffffffffffffffffffffffff82169050919050565b6000819050919050565b600060ff82169050919050565b7f496e636f727265637420617267756d656e742070617373656420696e21000000600082015250565b61035b8161031c565b811461036657600080fd5b5056fea2646970667358221220f68510ec6dc84ad317351c4973540a3d38f7db2d3f09f5dfcb21697f9f14fd0a64736f6c63430008040033",
  "linkReferences": {},
  "deployedLinkReferences": {}
}