{
  "_format": "hh-sol-artifact-1",
  "contractName": "Game5",
  "sourceName": "contracts/Game5.sol",
  "abi": [
    {
      "anonymous": false,
      "inputs": [
        {
          "indexed": false,
          "internalType": "address",
          "name": "winner",
          "type": "address"
        }
      ],
      "name": "Winner",
      "type": "event"
    },
    {
      "inputs": [
        {
          "internalType": "uint256",
          "name": "allowance",
          "type": "uint256"
        }
      ],
      "name": "giveMeAllowance",
      "outputs": [],
      "stateMutability": "nonpayable",
      "type": "function"
    },
    {
      "inputs": [
        {
          "internalType": "uint256",
          "name": "amount",
          "type": "uint256"
        }
      ],
      "name": "mint",
      "outputs": [],
      "stateMutability": "nonpayable",
      "type": "function"
    },
    {
      "inputs": [],
      "name": "win",
      "outputs": [],
      "stateMutability": "nonpayable",
      "type": "function"
    }
  ],
  "bytecode": "0x608060405234801561001057600080fd5b506103bf806100206000396000f3fe608060405234801561001057600080fd5b50600436106100415760003560e01c8063473ca96c14610046578063a0712d6814610050578063b19b33231461006c575b600080fd5b61004e610088565b005b61006a6004803603810190610065919061022a565b61010e565b005b6100866004803603810190610081919061022a565b6101bc565b005b6127106000803373ffffffffffffffffffffffffffffffffffffffff1673ffffffffffffffffffffffffffffffffffffffff1681526020019081526020016000205410156100d557600080fd5b7f745c90b656b4aafe296c8ca35aeacfe56cb96c90e1d320e5da643fff1051b6c0336040516101049190610262565b60405180910390a1565b80600160003373ffffffffffffffffffffffffffffffffffffffff1673ffffffffffffffffffffffffffffffffffffffff168152602001908152602001600020600082825461015d91906102d3565b92505081905550806000803373ffffffffffffffffffffffffffffffffffffffff1673ffffffffffffffffffffffffffffffffffffffff16815260200190815260200160002060008282546101b2919061027d565b9250508190555050565b80600160003373ffffffffffffffffffffffffffffffffffffffff1673ffffffffffffffffffffffffffffffffffffffff168152602001908152602001600020600082825461020b919061027d565b9250508190555050565b60008135905061022481610372565b92915050565b60006020828403121561023c57600080fd5b600061024a84828501610215565b91505092915050565b61025c81610307565b82525050565b60006020820190506102776000830184610253565b92915050565b600061028882610339565b915061029383610339565b9250827fffffffffffffffffffffffffffffffffffffffffffffffffffffffffffffffff038211156102c8576102c7610343565b5b828201905092915050565b60006102de82610339565b91506102e983610339565b9250828210156102fc576102fb610343565b5b828203905092915050565b600061031282610319565b9050919050565b600073ffffffffffffffffffffffffffffffffffffffff82169050919050565b6000819050919050565b7f4e487b7100000000000000000000000000000000000000000000000000000000600052601160045260246000fd5b61037b81610339565b811461038657600080fd5b5056fea26469706673582212207792986c54483b006d15ddff04b14ecc7f5b19d8f8607609c39ba41e34d19d3464736f6c63430008040033",
  "linkReferences": {},
  "deployedLinkReferences": {}
}